{
  "contractName": "SlimeContract",
  "abi": [
    {
      "inputs": [],
      "stateMutability": "nonpayable",
      "type": "constructor"
    },
    {
      "anonymous": false,
      "inputs": [
        {
          "indexed": true,
          "internalType": "address",
          "name": "owner",
          "type": "address"
        },
        {
          "indexed": true,
          "internalType": "address",
          "name": "approved",
          "type": "address"
        },
        {
          "indexed": true,
          "internalType": "uint256",
          "name": "tokenId",
          "type": "uint256"
        }
      ],
      "name": "Approval",
      "type": "event"
    },
    {
      "anonymous": false,
      "inputs": [
        {
          "indexed": true,
          "internalType": "address",
          "name": "owner",
          "type": "address"
        },
        {
          "indexed": true,
          "internalType": "address",
          "name": "operator",
          "type": "address"
        },
        {
          "indexed": false,
          "internalType": "bool",
          "name": "approved",
          "type": "bool"
        }
      ],
      "name": "ApprovalForAll",
      "type": "event"
    },
    {
      "anonymous": false,
      "inputs": [
        {
          "indexed": true,
          "internalType": "uint256",
          "name": "slimeId",
          "type": "uint256"
        },
        {
          "indexed": false,
          "internalType": "string",
          "name": "name",
          "type": "string"
        }
      ],
      "name": "NewSlime",
      "type": "event"
    },
    {
      "anonymous": false,
      "inputs": [
        {
          "indexed": true,
          "internalType": "address",
          "name": "previousOwner",
          "type": "address"
        },
        {
          "indexed": true,
          "internalType": "address",
          "name": "newOwner",
          "type": "address"
        }
      ],
      "name": "OwnershipTransferred",
      "type": "event"
    },
    {
      "anonymous": false,
      "inputs": [
        {
          "indexed": true,
          "internalType": "address",
          "name": "from",
          "type": "address"
        },
        {
          "indexed": true,
          "internalType": "address",
          "name": "to",
          "type": "address"
        },
        {
          "indexed": true,
          "internalType": "uint256",
          "name": "tokenId",
          "type": "uint256"
        }
      ],
      "name": "Transfer",
      "type": "event"
    },
    {
      "inputs": [
        {
          "internalType": "address",
          "name": "to",
          "type": "address"
        },
        {
          "internalType": "uint256",
          "name": "tokenId",
          "type": "uint256"
        }
      ],
      "name": "approve",
      "outputs": [],
      "stateMutability": "nonpayable",
      "type": "function"
    },
    {
      "inputs": [
        {
          "internalType": "address",
          "name": "owner",
          "type": "address"
        }
      ],
      "name": "balanceOf",
      "outputs": [
        {
          "internalType": "uint256",
          "name": "",
          "type": "uint256"
        }
      ],
      "stateMutability": "view",
      "type": "function",
      "constant": true
    },
    {
      "inputs": [
        {
          "internalType": "uint256",
          "name": "tokenId",
          "type": "uint256"
        }
      ],
      "name": "getApproved",
      "outputs": [
        {
          "internalType": "address",
          "name": "",
          "type": "address"
        }
      ],
      "stateMutability": "view",
      "type": "function",
      "constant": true
    },
    {
      "inputs": [
        {
          "internalType": "address",
          "name": "owner",
          "type": "address"
        },
        {
          "internalType": "address",
          "name": "operator",
          "type": "address"
        }
      ],
      "name": "isApprovedForAll",
      "outputs": [
        {
          "internalType": "bool",
          "name": "",
          "type": "bool"
        }
      ],
      "stateMutability": "view",
      "type": "function",
      "constant": true
    },
    {
      "inputs": [],
      "name": "name",
      "outputs": [
        {
          "internalType": "string",
          "name": "",
          "type": "string"
        }
      ],
      "stateMutability": "view",
      "type": "function",
      "constant": true
    },
    {
      "inputs": [],
      "name": "owner",
      "outputs": [
        {
          "internalType": "address",
          "name": "",
          "type": "address"
        }
      ],
      "stateMutability": "view",
      "type": "function",
      "constant": true
    },
    {
      "inputs": [
        {
          "internalType": "uint256",
          "name": "tokenId",
          "type": "uint256"
        }
      ],
      "name": "ownerOf",
      "outputs": [
        {
          "internalType": "address",
          "name": "",
          "type": "address"
        }
      ],
      "stateMutability": "view",
      "type": "function",
      "constant": true
    },
    {
      "inputs": [],
      "name": "renounceOwnership",
      "outputs": [],
      "stateMutability": "nonpayable",
      "type": "function"
    },
    {
      "inputs": [
        {
          "internalType": "address",
          "name": "from",
          "type": "address"
        },
        {
          "internalType": "address",
          "name": "to",
          "type": "address"
        },
        {
          "internalType": "uint256",
          "name": "tokenId",
          "type": "uint256"
        }
      ],
      "name": "safeTransferFrom",
      "outputs": [],
      "stateMutability": "nonpayable",
      "type": "function"
    },
    {
      "inputs": [
        {
          "internalType": "address",
          "name": "from",
          "type": "address"
        },
        {
          "internalType": "address",
          "name": "to",
          "type": "address"
        },
        {
          "internalType": "uint256",
          "name": "tokenId",
          "type": "uint256"
        },
        {
          "internalType": "bytes",
          "name": "_data",
          "type": "bytes"
        }
      ],
      "name": "safeTransferFrom",
      "outputs": [],
      "stateMutability": "nonpayable",
      "type": "function"
    },
    {
      "inputs": [
        {
          "internalType": "address",
          "name": "operator",
          "type": "address"
        },
        {
          "internalType": "bool",
          "name": "approved",
          "type": "bool"
        }
      ],
      "name": "setApprovalForAll",
      "outputs": [],
      "stateMutability": "nonpayable",
      "type": "function"
    },
    {
      "inputs": [
        {
          "internalType": "uint256",
          "name": "",
          "type": "uint256"
        }
      ],
      "name": "slimes",
      "outputs": [
        {
          "internalType": "uint8",
          "name": "_r",
          "type": "uint8"
        },
        {
          "internalType": "uint8",
          "name": "_g",
          "type": "uint8"
        },
        {
          "internalType": "uint8",
          "name": "_b",
          "type": "uint8"
        },
        {
          "internalType": "uint8",
          "name": "_size",
          "type": "uint8"
        },
        {
          "internalType": "string",
          "name": "_name",
          "type": "string"
        }
      ],
      "stateMutability": "view",
      "type": "function",
      "constant": true
    },
    {
      "inputs": [
        {
          "internalType": "bytes4",
          "name": "interfaceId",
          "type": "bytes4"
        }
      ],
      "name": "supportsInterface",
      "outputs": [
        {
          "internalType": "bool",
          "name": "",
          "type": "bool"
        }
      ],
      "stateMutability": "view",
      "type": "function",
      "constant": true
    },
    {
      "inputs": [],
      "name": "symbol",
      "outputs": [
        {
          "internalType": "string",
          "name": "",
          "type": "string"
        }
      ],
      "stateMutability": "view",
      "type": "function",
      "constant": true
    },
    {
      "inputs": [
        {
          "internalType": "uint256",
          "name": "tokenId",
          "type": "uint256"
        }
      ],
      "name": "tokenURI",
      "outputs": [
        {
          "internalType": "string",
          "name": "",
          "type": "string"
        }
      ],
      "stateMutability": "view",
      "type": "function",
      "constant": true
    },
    {
      "inputs": [
        {
          "internalType": "address",
          "name": "from",
          "type": "address"
        },
        {
          "internalType": "address",
          "name": "to",
          "type": "address"
        },
        {
          "internalType": "uint256",
          "name": "tokenId",
          "type": "uint256"
        }
      ],
      "name": "transferFrom",
      "outputs": [],
      "stateMutability": "nonpayable",
      "type": "function"
    },
    {
      "inputs": [
        {
          "internalType": "address",
          "name": "newOwner",
          "type": "address"
        }
      ],
      "name": "transferOwnership",
      "outputs": [],
      "stateMutability": "nonpayable",
      "type": "function"
    },
    {
      "inputs": [
        {
          "internalType": "string",
          "name": "name",
          "type": "string"
        }
      ],
      "name": "mintSlime",
      "outputs": [],
      "stateMutability": "nonpayable",
      "type": "function"
    },
    {
      "inputs": [
        {
          "internalType": "uint256",
          "name": "tokenId",
          "type": "uint256"
        }
      ],
      "name": "getSlime",
      "outputs": [
        {
          "components": [
            {
              "internalType": "uint8",
              "name": "_r",
              "type": "uint8"
            },
            {
              "internalType": "uint8",
              "name": "_g",
              "type": "uint8"
            },
            {
              "internalType": "uint8",
              "name": "_b",
              "type": "uint8"
            },
            {
              "internalType": "uint8",
              "name": "_size",
              "type": "uint8"
            },
            {
              "internalType": "string",
              "name": "_name",
              "type": "string"
            }
          ],
          "internalType": "struct SlimeContract.Slime",
          "name": "",
          "type": "tuple"
        }
      ],
      "stateMutability": "view",
      "type": "function",
      "constant": true
    },
    {
      "inputs": [],
      "name": "getAllOwnedSlimes",
      "outputs": [
        {
          "internalType": "uint256[]",
          "name": "",
          "type": "uint256[]"
        }
      ],
      "stateMutability": "view",
      "type": "function",
      "constant": true
    },
    {
      "inputs": [
        {
          "internalType": "uint256",
          "name": "tokenId",
          "type": "uint256"
        },
        {
          "internalType": "string",
          "name": "name",
          "type": "string"
        }
      ],
      "name": "updateName",
      "outputs": [],
      "stateMutability": "nonpayable",
      "type": "function"
    }
  ],
  "bytecode": "0x608060405260ff600660146101000a81548160ff021916908360ff1602179055506103e86007553480156200003357600080fd5b506040518060400160405280600581526020017f536c696d650000000000000000000000000000000000000000000000000000008152506040518060400160405280600281526020017f534c0000000000000000000000000000000000000000000000000000000000008152508160009080519060200190620000b8929190620001c8565b508060019080519060200190620000d1929190620001c8565b505050620000f4620000e8620000fa60201b60201c565b6200010260201b60201c565b620002dd565b600033905090565b6000600660009054906101000a900473ffffffffffffffffffffffffffffffffffffffff16905081600660006101000a81548173ffffffffffffffffffffffffffffffffffffffff021916908373ffffffffffffffffffffffffffffffffffffffff1602179055508173ffffffffffffffffffffffffffffffffffffffff168173ffffffffffffffffffffffffffffffffffffffff167f8be0079c531659141344cd1fd0a4f28419497f9722a3daafe3b4186f6b6457e060405160405180910390a35050565b828054620001d690620002a7565b90600052602060002090601f016020900481019282620001fa576000855562000246565b82601f106200021557805160ff191683800117855562000246565b8280016001018555821562000246579182015b828111156200024557825182559160200191906001019062000228565b5b50905062000255919062000259565b5090565b5b80821115620002745760008160009055506001016200025a565b5090565b7f4e487b7100000000000000000000000000000000000000000000000000000000600052602260045260246000fd5b60006002820490506001821680620002c057607f821691505b60208210811415620002d757620002d662000278565b5b50919050565b6136b780620002ed6000396000f3fe608060405234801561001057600080fd5b50600436106101375760003560e01c8063715018a6116100b8578063b88d4fde1161007c578063b88d4fde14610326578063c365dcd314610342578063c87b56dd14610376578063e985e9c5146103a6578063f2fde38b146103d6578063f69009a8146103f257610137565b8063715018a6146102a85780638da5cb5b146102b257806395d89b41146102d05780639f7540d8146102ee578063a22cb4651461030a57610137565b806323b872dd116100ff57806323b872dd146101f457806342842e0e1461021057806353e76f2c1461022c5780636352211e1461024857806370a082311461027857610137565b806301ffc9a71461013c57806306fdde031461016c578063081812fc1461018a578063095ea7b3146101ba57806309703b6c146101d6575b600080fd5b610156600480360381019061015191906120eb565b610422565b6040516101639190612133565b60405180910390f35b610174610504565b60405161018191906121e7565b60405180910390f35b6101a4600480360381019061019f919061223f565b610596565b6040516101b191906122ad565b60405180910390f35b6101d460048036038101906101cf91906122f4565b61061b565b005b6101de610733565b6040516101eb91906123f2565b60405180910390f35b61020e60048036038101906102099190612414565b6107fb565b005b61022a60048036038101906102259190612414565b61085b565b005b6102466004803603810190610241919061259c565b61087b565b005b610262600480360381019061025d919061223f565b6108e6565b60405161026f91906122ad565b60405180910390f35b610292600480360381019061028d91906125f8565b610998565b60405161029f9190612634565b60405180910390f35b6102b0610a50565b005b6102ba610ad8565b6040516102c791906122ad565b60405180910390f35b6102d8610b02565b6040516102e591906121e7565b60405180910390f35b6103086004803603810190610303919061264f565b610b94565b005b610324600480360381019061031f91906126c4565b610ddd565b005b610340600480360381019061033b91906127a5565b610df3565b005b61035c6004803603810190610357919061223f565b610e55565b60405161036d959493929190612844565b60405180910390f35b610390600480360381019061038b919061223f565b610f57565b60405161039d91906121e7565b60405180910390f35b6103c060048036038101906103bb919061289e565b610ffe565b6040516103cd9190612133565b60405180910390f35b6103f060048036038101906103eb91906125f8565b611092565b005b61040c6004803603810190610407919061223f565b61118a565b60405161041991906129ad565b60405180910390f35b60007f80ac58cd000000000000000000000000000000000000000000000000000000007bffffffffffffffffffffffffffffffffffffffffffffffffffffffff1916827bffffffffffffffffffffffffffffffffffffffffffffffffffffffff191614806104ed57507f5b5e139f000000000000000000000000000000000000000000000000000000007bffffffffffffffffffffffffffffffffffffffffffffffffffffffff1916827bffffffffffffffffffffffffffffffffffffffffffffffffffffffff1916145b806104fd57506104fc826112e2565b5b9050919050565b606060008054610513906129fe565b80601f016020809104026020016040519081016040528092919081815260200182805461053f906129fe565b801561058c5780601f106105615761010080835404028352916020019161058c565b820191906000526020600020905b81548152906001019060200180831161056f57829003601f168201915b5050505050905090565b60006105a18261134c565b6105e0576040517f08c379a00000000000000000000000000000000000000000000000000000000081526004016105d790612aa2565b60405180910390fd5b6004600083815260200190815260200160002060009054906101000a900473ffffffffffffffffffffffffffffffffffffffff169050919050565b6000610626826108e6565b90508073ffffffffffffffffffffffffffffffffffffffff168373ffffffffffffffffffffffffffffffffffffffff161415610697576040517f08c379a000000000000000000000000000000000000000000000000000000000815260040161068e90612b34565b60405180910390fd5b8073ffffffffffffffffffffffffffffffffffffffff166106b66113b8565b73ffffffffffffffffffffffffffffffffffffffff1614806106e557506106e4816106df6113b8565b610ffe565b5b610724576040517f08c379a000000000000000000000000000000000000000000000000000000000815260040161071b90612bc6565b60405180910390fd5b61072e83836113c0565b505050565b6060600061074033610998565b905060008167ffffffffffffffff81111561075e5761075d612471565b5b60405190808252806020026020018201604052801561078c5781602001602082028036833780820191505090505b5090506000805b6008805490508110156107f1576107aa3382611479565b156107de57808383815181106107c3576107c2612be6565b5b60200260200101818152505081806107da90612c44565b9250505b80806107e990612c44565b915050610793565b5081935050505090565b61080c6108066113b8565b82611479565b61084b576040517f08c379a000000000000000000000000000000000000000000000000000000000815260040161084290612cff565b60405180910390fd5b610856838383611557565b505050565b61087683838360405180602001604052806000815250610df3565b505050565b6108848261134c565b61089157610890612d1f565b5b61089b3383611479565b6108a8576108a7612d1f565b5b80600883815481106108bd576108bc612be6565b5b906000526020600020906002020160010190805190602001906108e1929190611fa1565b505050565b6000806002600084815260200190815260200160002060009054906101000a900473ffffffffffffffffffffffffffffffffffffffff169050600073ffffffffffffffffffffffffffffffffffffffff168173ffffffffffffffffffffffffffffffffffffffff16141561098f576040517f08c379a000000000000000000000000000000000000000000000000000000000815260040161098690612dc0565b60405180910390fd5b80915050919050565b60008073ffffffffffffffffffffffffffffffffffffffff168273ffffffffffffffffffffffffffffffffffffffff161415610a09576040517f08c379a0000000000000000000000000000000000000000000000000000000008152600401610a0090612e52565b60405180910390fd5b600360008373ffffffffffffffffffffffffffffffffffffffff1673ffffffffffffffffffffffffffffffffffffffff168152602001908152602001600020549050919050565b610a586113b8565b73ffffffffffffffffffffffffffffffffffffffff16610a76610ad8565b73ffffffffffffffffffffffffffffffffffffffff1614610acc576040517f08c379a0000000000000000000000000000000000000000000000000000000008152600401610ac390612ebe565b60405180910390fd5b610ad660006117b3565b565b6000600660009054906101000a900473ffffffffffffffffffffffffffffffffffffffff16905090565b606060018054610b11906129fe565b80601f0160208091040260200160405190810160405280929190818152602001828054610b3d906129fe565b8015610b8a5780601f10610b5f57610100808354040283529160200191610b8a565b820191906000526020600020905b815481529060010190602001808311610b6d57829003601f168201915b5050505050905090565b60075460088054905010610bab57610baa612d1f565b5b60004233604051602001610bc0929190612f47565b6040516020818303038152906040528051906020012060001c90506000600660149054906101000a900460ff1660ff1682610bfb9190612fa2565b90506000600660149054906101000a900460ff1660ff16600a84610c1f9190612fd3565b610c299190612fa2565b90506000600660149054906101000a900460ff1660ff16606485610c4d9190612fd3565b610c579190612fa2565b90506000606485610c689190612fa2565b905060006040518060a001604052808660ff1681526020018560ff1681526020018460ff1681526020018360ff168152602001888152509050600881908060018154018082558091505060019003906000526020600020906002020160009091909190915060008201518160000160006101000a81548160ff021916908360ff16021790555060208201518160000160016101000a81548160ff021916908360ff16021790555060408201518160000160026101000a81548160ff021916908360ff16021790555060608201518160000160036101000a81548160ff021916908360ff1602179055506080820151816001019080519060200190610d6d929190611fa1565b505050610d8b336001600880549050610d869190613004565b611879565b6001600880549050610d9d9190613004565b7f6b4c90e140f906f7be81e1c7c3e5c7f09ea3fed52b57fd82de135d612737675a88604051610dcc91906121e7565b60405180910390a250505050505050565b610def610de86113b8565b8383611897565b5050565b610e04610dfe6113b8565b83611479565b610e43576040517f08c379a0000000000000000000000000000000000000000000000000000000008152600401610e3a90612cff565b60405180910390fd5b610e4f84848484611a04565b50505050565b60088181548110610e6557600080fd5b90600052602060002090600202016000915090508060000160009054906101000a900460ff16908060000160019054906101000a900460ff16908060000160029054906101000a900460ff16908060000160039054906101000a900460ff1690806001018054610ed4906129fe565b80601f0160208091040260200160405190810160405280929190818152602001828054610f00906129fe565b8015610f4d5780601f10610f2257610100808354040283529160200191610f4d565b820191906000526020600020905b815481529060010190602001808311610f3057829003601f168201915b5050505050905085565b6060610f628261134c565b610fa1576040517f08c379a0000000000000000000000000000000000000000000000000000000008152600401610f98906130aa565b60405180910390fd5b6000610fab611a60565b90506000815111610fcb5760405180602001604052806000815250610ff6565b80610fd584611a77565b604051602001610fe6929190613106565b6040516020818303038152906040525b915050919050565b6000600560008473ffffffffffffffffffffffffffffffffffffffff1673ffffffffffffffffffffffffffffffffffffffff16815260200190815260200160002060008373ffffffffffffffffffffffffffffffffffffffff1673ffffffffffffffffffffffffffffffffffffffff16815260200190815260200160002060009054906101000a900460ff16905092915050565b61109a6113b8565b73ffffffffffffffffffffffffffffffffffffffff166110b8610ad8565b73ffffffffffffffffffffffffffffffffffffffff161461110e576040517f08c379a000000000000000000000000000000000000000000000000000000000815260040161110590612ebe565b60405180910390fd5b600073ffffffffffffffffffffffffffffffffffffffff168173ffffffffffffffffffffffffffffffffffffffff16141561117e576040517f08c379a00000000000000000000000000000000000000000000000000000000081526004016111759061319c565b60405180910390fd5b611187816117b3565b50565b611192612027565b61119b8261134c565b6111a8576111a7612d1f565b5b600882815481106111bc576111bb612be6565b5b90600052602060002090600202016040518060a00160405290816000820160009054906101000a900460ff1660ff1660ff1681526020016000820160019054906101000a900460ff1660ff1660ff1681526020016000820160029054906101000a900460ff1660ff1660ff1681526020016000820160039054906101000a900460ff1660ff1660ff168152602001600182018054611259906129fe565b80601f0160208091040260200160405190810160405280929190818152602001828054611285906129fe565b80156112d25780601f106112a7576101008083540402835291602001916112d2565b820191906000526020600020905b8154815290600101906020018083116112b557829003601f168201915b5050505050815250509050919050565b60007f01ffc9a7000000000000000000000000000000000000000000000000000000007bffffffffffffffffffffffffffffffffffffffffffffffffffffffff1916827bffffffffffffffffffffffffffffffffffffffffffffffffffffffff1916149050919050565b60008073ffffffffffffffffffffffffffffffffffffffff166002600084815260200190815260200160002060009054906101000a900473ffffffffffffffffffffffffffffffffffffffff1673ffffffffffffffffffffffffffffffffffffffff1614159050919050565b600033905090565b816004600083815260200190815260200160002060006101000a81548173ffffffffffffffffffffffffffffffffffffffff021916908373ffffffffffffffffffffffffffffffffffffffff160217905550808273ffffffffffffffffffffffffffffffffffffffff16611433836108e6565b73ffffffffffffffffffffffffffffffffffffffff167f8c5be1e5ebec7d5bd14f71427d1e84f3dd0314c0f7b2291e5b200ac8c7c3b92560405160405180910390a45050565b60006114848261134c565b6114c3576040517f08c379a00000000000000000000000000000000000000000000000000000000081526004016114ba9061322e565b60405180910390fd5b60006114ce836108e6565b90508073ffffffffffffffffffffffffffffffffffffffff168473ffffffffffffffffffffffffffffffffffffffff16148061153d57508373ffffffffffffffffffffffffffffffffffffffff1661152584610596565b73ffffffffffffffffffffffffffffffffffffffff16145b8061154e575061154d8185610ffe565b5b91505092915050565b8273ffffffffffffffffffffffffffffffffffffffff16611577826108e6565b73ffffffffffffffffffffffffffffffffffffffff16146115cd576040517f08c379a00000000000000000000000000000000000000000000000000000000081526004016115c4906132c0565b60405180910390fd5b600073ffffffffffffffffffffffffffffffffffffffff168273ffffffffffffffffffffffffffffffffffffffff16141561163d576040517f08c379a000000000000000000000000000000000000000000000000000000000815260040161163490613352565b60405180910390fd5b611648838383611bd8565b6116536000826113c0565b6001600360008573ffffffffffffffffffffffffffffffffffffffff1673ffffffffffffffffffffffffffffffffffffffff16815260200190815260200160002060008282546116a39190613004565b925050819055506001600360008473ffffffffffffffffffffffffffffffffffffffff1673ffffffffffffffffffffffffffffffffffffffff16815260200190815260200160002060008282546116fa9190613372565b92505081905550816002600083815260200190815260200160002060006101000a81548173ffffffffffffffffffffffffffffffffffffffff021916908373ffffffffffffffffffffffffffffffffffffffff160217905550808273ffffffffffffffffffffffffffffffffffffffff168473ffffffffffffffffffffffffffffffffffffffff167fddf252ad1be2c89b69c2b068fc378daa952ba7f163c4a11628f55a4df523b3ef60405160405180910390a4505050565b6000600660009054906101000a900473ffffffffffffffffffffffffffffffffffffffff16905081600660006101000a81548173ffffffffffffffffffffffffffffffffffffffff021916908373ffffffffffffffffffffffffffffffffffffffff1602179055508173ffffffffffffffffffffffffffffffffffffffff168173ffffffffffffffffffffffffffffffffffffffff167f8be0079c531659141344cd1fd0a4f28419497f9722a3daafe3b4186f6b6457e060405160405180910390a35050565b611893828260405180602001604052806000815250611bdd565b5050565b8173ffffffffffffffffffffffffffffffffffffffff168373ffffffffffffffffffffffffffffffffffffffff161415611906576040517f08c379a00000000000000000000000000000000000000000000000000000000081526004016118fd90613414565b60405180910390fd5b80600560008573ffffffffffffffffffffffffffffffffffffffff1673ffffffffffffffffffffffffffffffffffffffff16815260200190815260200160002060008473ffffffffffffffffffffffffffffffffffffffff1673ffffffffffffffffffffffffffffffffffffffff16815260200190815260200160002060006101000a81548160ff0219169083151502179055508173ffffffffffffffffffffffffffffffffffffffff168373ffffffffffffffffffffffffffffffffffffffff167f17307eab39ab6107e8899845ad3d59bd9653f200f220920489ca2b5937696c31836040516119f79190612133565b60405180910390a3505050565b611a0f848484611557565b611a1b84848484611c38565b611a5a576040517f08c379a0000000000000000000000000000000000000000000000000000000008152600401611a51906134a6565b60405180910390fd5b50505050565b606060405180602001604052806000815250905090565b60606000821415611abf576040518060400160405280600181526020017f30000000000000000000000000000000000000000000000000000000000000008152509050611bd3565b600082905060005b60008214611af1578080611ada90612c44565b915050600a82611aea9190612fd3565b9150611ac7565b60008167ffffffffffffffff811115611b0d57611b0c612471565b5b6040519080825280601f01601f191660200182016040528015611b3f5781602001600182028036833780820191505090505b5090505b60008514611bcc57600182611b589190613004565b9150600a85611b679190612fa2565b6030611b739190613372565b60f81b818381518110611b8957611b88612be6565b5b60200101907effffffffffffffffffffffffffffffffffffffffffffffffffffffffffffff1916908160001a905350600a85611bc59190612fd3565b9450611b43565b8093505050505b919050565b505050565b611be78383611dc0565b611bf46000848484611c38565b611c33576040517f08c379a0000000000000000000000000000000000000000000000000000000008152600401611c2a906134a6565b60405180910390fd5b505050565b6000611c598473ffffffffffffffffffffffffffffffffffffffff16611f8e565b15611db3578373ffffffffffffffffffffffffffffffffffffffff1663150b7a02611c826113b8565b8786866040518563ffffffff1660e01b8152600401611ca4949392919061351b565b6020604051808303816000875af1925050508015611ce057506040513d601f19601f82011682018060405250810190611cdd919061357c565b60015b611d63573d8060008114611d10576040519150601f19603f3d011682016040523d82523d6000602084013e611d15565b606091505b50600081511415611d5b576040517f08c379a0000000000000000000000000000000000000000000000000000000008152600401611d52906134a6565b60405180910390fd5b805181602001fd5b63150b7a0260e01b7bffffffffffffffffffffffffffffffffffffffffffffffffffffffff1916817bffffffffffffffffffffffffffffffffffffffffffffffffffffffff191614915050611db8565b600190505b949350505050565b600073ffffffffffffffffffffffffffffffffffffffff168273ffffffffffffffffffffffffffffffffffffffff161415611e30576040517f08c379a0000000000000000000000000000000000000000000000000000000008152600401611e27906135f5565b60405180910390fd5b611e398161134c565b15611e79576040517f08c379a0000000000000000000000000000000000000000000000000000000008152600401611e7090613661565b60405180910390fd5b611e8560008383611bd8565b6001600360008473ffffffffffffffffffffffffffffffffffffffff1673ffffffffffffffffffffffffffffffffffffffff1681526020019081526020016000206000828254611ed59190613372565b92505081905550816002600083815260200190815260200160002060006101000a81548173ffffffffffffffffffffffffffffffffffffffff021916908373ffffffffffffffffffffffffffffffffffffffff160217905550808273ffffffffffffffffffffffffffffffffffffffff16600073ffffffffffffffffffffffffffffffffffffffff167fddf252ad1be2c89b69c2b068fc378daa952ba7f163c4a11628f55a4df523b3ef60405160405180910390a45050565b600080823b905060008111915050919050565b828054611fad906129fe565b90600052602060002090601f016020900481019282611fcf5760008555612016565b82601f10611fe857805160ff1916838001178555612016565b82800160010185558215612016579182015b82811115612015578251825591602001919060010190611ffa565b5b5090506120239190612062565b5090565b6040518060a00160405280600060ff168152602001600060ff168152602001600060ff168152602001600060ff168152602001606081525090565b5b8082111561207b576000816000905550600101612063565b5090565b6000604051905090565b600080fd5b600080fd5b60007fffffffff0000000000000000000000000000000000000000000000000000000082169050919050565b6120c881612093565b81146120d357600080fd5b50565b6000813590506120e5816120bf565b92915050565b60006020828403121561210157612100612089565b5b600061210f848285016120d6565b91505092915050565b60008115159050919050565b61212d81612118565b82525050565b60006020820190506121486000830184612124565b92915050565b600081519050919050565b600082825260208201905092915050565b60005b8381101561218857808201518184015260208101905061216d565b83811115612197576000848401525b50505050565b6000601f19601f8301169050919050565b60006121b98261214e565b6121c38185612159565b93506121d381856020860161216a565b6121dc8161219d565b840191505092915050565b6000602082019050818103600083015261220181846121ae565b905092915050565b6000819050919050565b61221c81612209565b811461222757600080fd5b50565b60008135905061223981612213565b92915050565b60006020828403121561225557612254612089565b5b60006122638482850161222a565b91505092915050565b600073ffffffffffffffffffffffffffffffffffffffff82169050919050565b60006122978261226c565b9050919050565b6122a78161228c565b82525050565b60006020820190506122c2600083018461229e565b92915050565b6122d18161228c565b81146122dc57600080fd5b50565b6000813590506122ee816122c8565b92915050565b6000806040838503121561230b5761230a612089565b5b6000612319858286016122df565b925050602061232a8582860161222a565b9150509250929050565b600081519050919050565b600082825260208201905092915050565b6000819050602082019050919050565b61236981612209565b82525050565b600061237b8383612360565b60208301905092915050565b6000602082019050919050565b600061239f82612334565b6123a9818561233f565b93506123b483612350565b8060005b838110156123e55781516123cc888261236f565b97506123d783612387565b9250506001810190506123b8565b5085935050505092915050565b6000602082019050818103600083015261240c8184612394565b905092915050565b60008060006060848603121561242d5761242c612089565b5b600061243b868287016122df565b935050602061244c868287016122df565b925050604061245d8682870161222a565b9150509250925092565b600080fd5b600080fd5b7f4e487b7100000000000000000000000000000000000000000000000000000000600052604160045260246000fd5b6124a98261219d565b810181811067ffffffffffffffff821117156124c8576124c7612471565b5b80604052505050565b60006124db61207f565b90506124e782826124a0565b919050565b600067ffffffffffffffff82111561250757612506612471565b5b6125108261219d565b9050602081019050919050565b82818337600083830152505050565b600061253f61253a846124ec565b6124d1565b90508281526020810184848401111561255b5761255a61246c565b5b61256684828561251d565b509392505050565b600082601f83011261258357612582612467565b5b813561259384826020860161252c565b91505092915050565b600080604083850312156125b3576125b2612089565b5b60006125c18582860161222a565b925050602083013567ffffffffffffffff8111156125e2576125e161208e565b5b6125ee8582860161256e565b9150509250929050565b60006020828403121561260e5761260d612089565b5b600061261c848285016122df565b91505092915050565b61262e81612209565b82525050565b60006020820190506126496000830184612625565b92915050565b60006020828403121561266557612664612089565b5b600082013567ffffffffffffffff8111156126835761268261208e565b5b61268f8482850161256e565b91505092915050565b6126a181612118565b81146126ac57600080fd5b50565b6000813590506126be81612698565b92915050565b600080604083850312156126db576126da612089565b5b60006126e9858286016122df565b92505060206126fa858286016126af565b9150509250929050565b600067ffffffffffffffff82111561271f5761271e612471565b5b6127288261219d565b9050602081019050919050565b600061274861274384612704565b6124d1565b9050828152602081018484840111156127645761276361246c565b5b61276f84828561251d565b509392505050565b600082601f83011261278c5761278b612467565b5b813561279c848260208601612735565b91505092915050565b600080600080608085870312156127bf576127be612089565b5b60006127cd878288016122df565b94505060206127de878288016122df565b93505060406127ef8782880161222a565b925050606085013567ffffffffffffffff8111156128105761280f61208e565b5b61281c87828801612777565b91505092959194509250565b600060ff82169050919050565b61283e81612828565b82525050565b600060a0820190506128596000830188612835565b6128666020830187612835565b6128736040830186612835565b6128806060830185612835565b818103608083015261289281846121ae565b90509695505050505050565b600080604083850312156128b5576128b4612089565b5b60006128c3858286016122df565b92505060206128d4858286016122df565b9150509250929050565b6128e781612828565b82525050565b600082825260208201905092915050565b60006129098261214e565b61291381856128ed565b935061292381856020860161216a565b61292c8161219d565b840191505092915050565b600060a08301600083015161294f60008601826128de565b50602083015161296260208601826128de565b50604083015161297560408601826128de565b50606083015161298860608601826128de565b50608083015184820360808601526129a082826128fe565b9150508091505092915050565b600060208201905081810360008301526129c78184612937565b905092915050565b7f4e487b7100000000000000000000000000000000000000000000000000000000600052602260045260246000fd5b60006002820490506001821680612a1657607f821691505b60208210811415612a2a57612a296129cf565b5b50919050565b7f4552433732313a20617070726f76656420717565727920666f72206e6f6e657860008201527f697374656e7420746f6b656e0000000000000000000000000000000000000000602082015250565b6000612a8c602c83612159565b9150612a9782612a30565b604082019050919050565b60006020820190508181036000830152612abb81612a7f565b9050919050565b7f4552433732313a20617070726f76616c20746f2063757272656e74206f776e6560008201527f7200000000000000000000000000000000000000000000000000000000000000602082015250565b6000612b1e602183612159565b9150612b2982612ac2565b604082019050919050565b60006020820190508181036000830152612b4d81612b11565b9050919050565b7f4552433732313a20617070726f76652063616c6c6572206973206e6f74206f7760008201527f6e6572206e6f7220617070726f76656420666f7220616c6c0000000000000000602082015250565b6000612bb0603883612159565b9150612bbb82612b54565b604082019050919050565b60006020820190508181036000830152612bdf81612ba3565b9050919050565b7f4e487b7100000000000000000000000000000000000000000000000000000000600052603260045260246000fd5b7f4e487b7100000000000000000000000000000000000000000000000000000000600052601160045260246000fd5b6000612c4f82612209565b91507fffffffffffffffffffffffffffffffffffffffffffffffffffffffffffffffff821415612c8257612c81612c15565b5b600182019050919050565b7f4552433732313a207472616e736665722063616c6c6572206973206e6f74206f60008201527f776e6572206e6f7220617070726f766564000000000000000000000000000000602082015250565b6000612ce9603183612159565b9150612cf482612c8d565b604082019050919050565b60006020820190508181036000830152612d1881612cdc565b9050919050565b7f4e487b7100000000000000000000000000000000000000000000000000000000600052600160045260246000fd5b7f4552433732313a206f776e657220717565727920666f72206e6f6e657869737460008201527f656e7420746f6b656e0000000000000000000000000000000000000000000000602082015250565b6000612daa602983612159565b9150612db582612d4e565b604082019050919050565b60006020820190508181036000830152612dd981612d9d565b9050919050565b7f4552433732313a2062616c616e636520717565727920666f7220746865207a6560008201527f726f206164647265737300000000000000000000000000000000000000000000602082015250565b6000612e3c602a83612159565b9150612e4782612de0565b604082019050919050565b60006020820190508181036000830152612e6b81612e2f565b9050919050565b7f4f776e61626c653a2063616c6c6572206973206e6f7420746865206f776e6572600082015250565b6000612ea8602083612159565b9150612eb382612e72565b602082019050919050565b60006020820190508181036000830152612ed781612e9b565b9050919050565b6000819050919050565b612ef9612ef482612209565b612ede565b82525050565b60008160601b9050919050565b6000612f1782612eff565b9050919050565b6000612f2982612f0c565b9050919050565b612f41612f3c8261228c565b612f1e565b82525050565b6000612f538285612ee8565b602082019150612f638284612f30565b6014820191508190509392505050565b7f4e487b7100000000000000000000000000000000000000000000000000000000600052601260045260246000fd5b6000612fad82612209565b9150612fb883612209565b925082612fc857612fc7612f73565b5b828206905092915050565b6000612fde82612209565b9150612fe983612209565b925082612ff957612ff8612f73565b5b828204905092915050565b600061300f82612209565b915061301a83612209565b92508282101561302d5761302c612c15565b5b828203905092915050565b7f4552433732314d657461646174613a2055524920717565727920666f72206e6f60008201527f6e6578697374656e7420746f6b656e0000000000000000000000000000000000602082015250565b6000613094602f83612159565b915061309f82613038565b604082019050919050565b600060208201905081810360008301526130c381613087565b9050919050565b600081905092915050565b60006130e08261214e565b6130ea81856130ca565b93506130fa81856020860161216a565b80840191505092915050565b600061311282856130d5565b915061311e82846130d5565b91508190509392505050565b7f4f776e61626c653a206e6577206f776e657220697320746865207a65726f206160008201527f6464726573730000000000000000000000000000000000000000000000000000602082015250565b6000613186602683612159565b91506131918261312a565b604082019050919050565b600060208201905081810360008301526131b581613179565b9050919050565b7f4552433732313a206f70657261746f7220717565727920666f72206e6f6e657860008201527f697374656e7420746f6b656e0000000000000000000000000000000000000000602082015250565b6000613218602c83612159565b9150613223826131bc565b604082019050919050565b600060208201905081810360008301526132478161320b565b9050919050565b7f4552433732313a207472616e73666572206f6620746f6b656e2074686174206960008201527f73206e6f74206f776e0000000000000000000000000000000000000000000000602082015250565b60006132aa602983612159565b91506132b58261324e565b604082019050919050565b600060208201905081810360008301526132d98161329d565b9050919050565b7f4552433732313a207472616e7366657220746f20746865207a65726f2061646460008201527f7265737300000000000000000000000000000000000000000000000000000000602082015250565b600061333c602483612159565b9150613347826132e0565b604082019050919050565b6000602082019050818103600083015261336b8161332f565b9050919050565b600061337d82612209565b915061338883612209565b9250827fffffffffffffffffffffffffffffffffffffffffffffffffffffffffffffffff038211156133bd576133bc612c15565b5b828201905092915050565b7f4552433732313a20617070726f766520746f2063616c6c657200000000000000600082015250565b60006133fe601983612159565b9150613409826133c8565b602082019050919050565b6000602082019050818103600083015261342d816133f1565b9050919050565b7f4552433732313a207472616e7366657220746f206e6f6e20455243373231526560008201527f63656976657220696d706c656d656e7465720000000000000000000000000000602082015250565b6000613490603283612159565b915061349b82613434565b604082019050919050565b600060208201905081810360008301526134bf81613483565b9050919050565b600081519050919050565b600082825260208201905092915050565b60006134ed826134c6565b6134f781856134d1565b935061350781856020860161216a565b6135108161219d565b840191505092915050565b6000608082019050613530600083018761229e565b61353d602083018661229e565b61354a6040830185612625565b818103606083015261355c81846134e2565b905095945050505050565b600081519050613576816120bf565b92915050565b60006020828403121561359257613591612089565b5b60006135a084828501613567565b91505092915050565b7f4552433732313a206d696e7420746f20746865207a65726f2061646472657373600082015250565b60006135df602083612159565b91506135ea826135a9565b602082019050919050565b6000602082019050818103600083015261360e816135d2565b9050919050565b7f4552433732313a20746f6b656e20616c7265616479206d696e74656400000000600082015250565b600061364b601c83612159565b915061365682613615565b602082019050919050565b6000602082019050818103600083015261367a8161363e565b905091905056fea264697066735822122037655b42e4abe5d6f689fdaad964f03d58a486104b803908f4bcf32469e882b264736f6c634300080a0033",
  "immutableReferences": {},
  "source": "pragma solidity ^0.8.2;\n\nimport \"@openzeppelin/contracts/token/ERC721/ERC721.sol\";\nimport \"@openzeppelin/contracts/access/Ownable.sol\";\n\ncontract SlimeContract is ERC721, Ownable {\n    uint8 MAX_COLOR = 255;\n    uint MAX_SLIMES = 1000;\n    event NewSlime(uint indexed slimeId, string name);\n    struct Slime {\n        uint8 _r;\n        uint8 _g;\n        uint8 _b;\n        uint8 _size;\n        string _name;\n    }\n    Slime[] public slimes;\n\n    constructor() ERC721(\"Slime\", \"SL\"){}\n\n    function mintSlime(string memory name) external {\n        assert(slimes.length < MAX_SLIMES);\n        uint randInt = uint(keccak256(abi.encodePacked(block.timestamp, msg.sender)));\n        // Uses random value to generate slime color values\n        uint8 r = uint8(randInt % MAX_COLOR);\n        uint8 g = uint8((randInt / 10) % MAX_COLOR);\n        uint8 b = uint8((randInt / 100) % MAX_COLOR);\n        uint8 size = uint8(randInt % 100);\n        Slime memory newSlime = Slime(r, g, b, size, name);\n        slimes.push(newSlime);\n        _safeMint(msg.sender, slimes.length - 1);\n        emit NewSlime(slimes.length - 1, name);\n    }\n\n    function getSlime(uint tokenId) external view returns(Slime memory) {\n        assert(_exists(tokenId));\n        return slimes[tokenId];\n    }\n\n    function getAllOwnedSlimes() external view returns(uint[] memory) {\n        uint size = balanceOf(msg.sender);\n        uint[] memory ownedSlimes = new uint[](size);\n        uint counter = 0;\n        for (uint i = 0; i < slimes.length; i++) {\n            if (_isApprovedOrOwner(msg.sender, i)) {\n                ownedSlimes[counter] = i;\n                counter++;\n            }\n        }\n        return ownedSlimes;\n    }\n\n    function updateName(uint tokenId, string memory name) external {\n        assert(_exists(tokenId));\n        assert(_isApprovedOrOwner(msg.sender, tokenId));\n\n        slimes[tokenId]._name = name;\n    }\n}",
  "sourcePath": "/Users/evansaracay/Desktop/Layer One/Ethereum/contracts/SlimeContract.sol",
  "compiler": {
    "name": "solc",
    "version": "0.8.10+commit.fc410830.Emscripten.clang"
  },
  "schemaVersion": "3.4.3",
  "updatedAt": "2021-12-17T08:26:58.722Z",
  "networkType": "ethereum",
  "devdoc": {
    "kind": "dev",
    "methods": {
      "approve(address,uint256)": {
        "details": "See {IERC721-approve}."
      },
      "balanceOf(address)": {
        "details": "See {IERC721-balanceOf}."
      },
      "getApproved(uint256)": {
        "details": "See {IERC721-getApproved}."
      },
      "isApprovedForAll(address,address)": {
        "details": "See {IERC721-isApprovedForAll}."
      },
      "name()": {
        "details": "See {IERC721Metadata-name}."
      },
      "owner()": {
        "details": "Returns the address of the current owner."
      },
      "ownerOf(uint256)": {
        "details": "See {IERC721-ownerOf}."
      },
      "renounceOwnership()": {
        "details": "Leaves the contract without owner. It will not be possible to call `onlyOwner` functions anymore. Can only be called by the current owner. NOTE: Renouncing ownership will leave the contract without an owner, thereby removing any functionality that is only available to the owner."
      },
      "safeTransferFrom(address,address,uint256)": {
        "details": "See {IERC721-safeTransferFrom}."
      },
      "safeTransferFrom(address,address,uint256,bytes)": {
        "details": "See {IERC721-safeTransferFrom}."
      },
      "setApprovalForAll(address,bool)": {
        "details": "See {IERC721-setApprovalForAll}."
      },
      "supportsInterface(bytes4)": {
        "details": "See {IERC165-supportsInterface}."
      },
      "symbol()": {
        "details": "See {IERC721Metadata-symbol}."
      },
      "tokenURI(uint256)": {
        "details": "See {IERC721Metadata-tokenURI}."
      },
      "transferFrom(address,address,uint256)": {
        "details": "See {IERC721-transferFrom}."
      },
      "transferOwnership(address)": {
        "details": "Transfers ownership of the contract to a new account (`newOwner`). Can only be called by the current owner."
      }
    },
    "version": 1
  },
  "userdoc": {
    "kind": "user",
    "methods": {},
    "version": 1
  }
}